{
  "contractName": "UserDataStorage",
  "abi": [
    {
      "anonymous": false,
      "inputs": [
        {
          "indexed": true,
          "internalType": "address",
          "name": "userAccount",
          "type": "address"
        },
        {
          "indexed": false,
          "internalType": "string",
          "name": "name",
          "type": "string"
        },
        {
          "indexed": false,
          "internalType": "string",
          "name": "userAddress",
          "type": "string"
        },
        {
          "indexed": false,
          "internalType": "string",
          "name": "location",
          "type": "string"
        }
      ],
      "name": "UserDataSaved",
      "type": "event"
    },
    {
      "inputs": [
        {
          "internalType": "string",
          "name": "_name",
          "type": "string"
        },
        {
          "internalType": "string",
          "name": "_userAddress",
          "type": "string"
        },
        {
          "internalType": "string",
          "name": "_location",
          "type": "string"
        }
      ],
      "name": "saveUserData",
      "outputs": [],
      "stateMutability": "nonpayable",
      "type": "function"
    },
    {
      "inputs": [],
      "name": "getUserData",
      "outputs": [
        {
          "components": [
            {
              "internalType": "string",
              "name": "name",
              "type": "string"
            },
            {
              "internalType": "string",
              "name": "userAddress",
              "type": "string"
            },
            {
              "internalType": "string",
              "name": "location",
              "type": "string"
            }
          ],
          "internalType": "struct UserDataStorage.UserData[]",
          "name": "",
          "type": "tuple[]"
        }
      ],
      "stateMutability": "view",
      "type": "function",
      "constant": true
    },
    {
      "inputs": [
        {
          "internalType": "address",
          "name": "_userAddress",
          "type": "address"
        }
      ],
      "name": "getUserDataByAddress",
      "outputs": [
        {
          "components": [
            {
              "internalType": "string",
              "name": "name",
              "type": "string"
            },
            {
              "internalType": "string",
              "name": "userAddress",
              "type": "string"
            },
            {
              "internalType": "string",
              "name": "location",
              "type": "string"
            }
          ],
          "internalType": "struct UserDataStorage.UserData[]",
          "name": "",
          "type": "tuple[]"
        }
      ],
      "stateMutability": "view",
      "type": "function",
      "constant": true
    }
  ],
  "bytecode": "0x608060405234801561000f575f80fd5b50610e148061001d5f395ff3fe608060405234801561000f575f80fd5b506004361061003f575f3560e01c8063223b839e1461004357806322e8c87d146100735780634e86aa6f14610091575b5f80fd5b61005d600480360381019061005891906106bf565b6100ad565b60405161006a919061088a565b60405180910390f35b61007b6102f4565b604051610088919061088a565b60405180910390f35b6100ab60048036038101906100a691906109d6565b610539565b005b60605f808373ffffffffffffffffffffffffffffffffffffffff1673ffffffffffffffffffffffffffffffffffffffff1681526020019081526020015f20805480602002602001604051908101604052809291908181526020015f905b828210156102e9578382905f5260205f2090600302016040518060600160405290815f8201805461013a90610aa7565b80601f016020809104026020016040519081016040528092919081815260200182805461016690610aa7565b80156101b15780601f10610188576101008083540402835291602001916101b1565b820191905f5260205f20905b81548152906001019060200180831161019457829003601f168201915b505050505081526020016001820180546101ca90610aa7565b80601f01602080910402602001604051908101604052809291908181526020018280546101f690610aa7565b80156102415780601f1061021857610100808354040283529160200191610241565b820191905f5260205f20905b81548152906001019060200180831161022457829003601f168201915b5050505050815260200160028201805461025a90610aa7565b80601f016020809104026020016040519081016040528092919081815260200182805461028690610aa7565b80156102d15780601f106102a8576101008083540402835291602001916102d1565b820191905f5260205f20905b8154815290600101906020018083116102b457829003601f168201915b5050505050815250508152602001906001019061010a565b505050509050919050565b60605f803373ffffffffffffffffffffffffffffffffffffffff1673ffffffffffffffffffffffffffffffffffffffff1681526020019081526020015f20805480602002602001604051908101604052809291908181526020015f905b82821015610530578382905f5260205f2090600302016040518060600160405290815f8201805461038190610aa7565b80601f01602080910402602001604051908101604052809291908181526020018280546103ad90610aa7565b80156103f85780601f106103cf576101008083540402835291602001916103f8565b820191905f5260205f20905b8154815290600101906020018083116103db57829003601f168201915b5050505050815260200160018201805461041190610aa7565b80601f016020809104026020016040519081016040528092919081815260200182805461043d90610aa7565b80156104885780601f1061045f57610100808354040283529160200191610488565b820191905f5260205f20905b81548152906001019060200180831161046b57829003601f168201915b505050505081526020016002820180546104a190610aa7565b80601f01602080910402602001604051908101604052809291908181526020018280546104cd90610aa7565b80156105185780601f106104ef57610100808354040283529160200191610518565b820191905f5260205f20905b8154815290600101906020018083116104fb57829003601f168201915b50505050508152505081526020019060010190610351565b50505050905090565b5f60405180606001604052808581526020018481526020018381525090505f803373ffffffffffffffffffffffffffffffffffffffff1673ffffffffffffffffffffffffffffffffffffffff1681526020019081526020015f2081908060018154018082558091505060019003905f5260205f2090600302015f909190919091505f820151815f0190816105cd9190610c7d565b5060208201518160010190816105e39190610c7d565b5060408201518160020190816105f99190610c7d565b5050503373ffffffffffffffffffffffffffffffffffffffff167f6d789912647df8f2d3203844a3891c904b3f77a7b8556585607147bbc31753ce85858560405161064693929190610d94565b60405180910390a250505050565b5f604051905090565b5f80fd5b5f80fd5b5f73ffffffffffffffffffffffffffffffffffffffff82169050919050565b5f61068e82610665565b9050919050565b61069e81610684565b81146106a8575f80fd5b50565b5f813590506106b981610695565b92915050565b5f602082840312156106d4576106d361065d565b5b5f6106e1848285016106ab565b91505092915050565b5f81519050919050565b5f82825260208201905092915050565b5f819050602082019050919050565b5f81519050919050565b5f82825260208201905092915050565b5f5b8381101561074a57808201518184015260208101905061072f565b5f8484015250505050565b5f601f19601f8301169050919050565b5f61076f82610713565b610779818561071d565b935061078981856020860161072d565b61079281610755565b840191505092915050565b5f606083015f8301518482035f8601526107b78282610765565b915050602083015184820360208601526107d18282610765565b915050604083015184820360408601526107eb8282610765565b9150508091505092915050565b5f610803838361079d565b905092915050565b5f602082019050919050565b5f610821826106ea565b61082b81856106f4565b93508360208202850161083d85610704565b805f5b85811015610878578484038952815161085985826107f8565b94506108648361080b565b925060208a01995050600181019050610840565b50829750879550505050505092915050565b5f6020820190508181035f8301526108a28184610817565b905092915050565b5f80fd5b5f80fd5b7f4e487b71000000000000000000000000000000000000000000000000000000005f52604160045260245ffd5b6108e882610755565b810181811067ffffffffffffffff82111715610907576109066108b2565b5b80604052505050565b5f610919610654565b905061092582826108df565b919050565b5f67ffffffffffffffff821115610944576109436108b2565b5b61094d82610755565b9050602081019050919050565b828183375f83830152505050565b5f61097a6109758461092a565b610910565b905082815260208101848484011115610996576109956108ae565b5b6109a184828561095a565b509392505050565b5f82601f8301126109bd576109bc6108aa565b5b81356109cd848260208601610968565b91505092915050565b5f805f606084860312156109ed576109ec61065d565b5b5f84013567ffffffffffffffff811115610a0a57610a09610661565b5b610a16868287016109a9565b935050602084013567ffffffffffffffff811115610a3757610a36610661565b5b610a43868287016109a9565b925050604084013567ffffffffffffffff811115610a6457610a63610661565b5b610a70868287016109a9565b9150509250925092565b7f4e487b71000000000000000000000000000000000000000000000000000000005f52602260045260245ffd5b5f6002820490506001821680610abe57607f821691505b602082108103610ad157610ad0610a7a565b5b50919050565b5f819050815f5260205f209050919050565b5f6020601f8301049050919050565b5f82821b905092915050565b5f60088302610b337fffffffffffffffffffffffffffffffffffffffffffffffffffffffffffffffff82610af8565b610b3d8683610af8565b95508019841693508086168417925050509392505050565b5f819050919050565b5f819050919050565b5f610b81610b7c610b7784610b55565b610b5e565b610b55565b9050919050565b5f819050919050565b610b9a83610b67565b610bae610ba682610b88565b848454610b04565b825550505050565b5f90565b610bc2610bb6565b610bcd818484610b91565b505050565b5b81811015610bf057610be55f82610bba565b600181019050610bd3565b5050565b601f821115610c3557610c0681610ad7565b610c0f84610ae9565b81016020851015610c1e578190505b610c32610c2a85610ae9565b830182610bd2565b50505b505050565b5f82821c905092915050565b5f610c555f1984600802610c3a565b1980831691505092915050565b5f610c6d8383610c46565b9150826002028217905092915050565b610c8682610713565b67ffffffffffffffff811115610c9f57610c9e6108b2565b5b610ca98254610aa7565b610cb4828285610bf4565b5f60209050601f831160018114610ce5575f8415610cd3578287015190505b610cdd8582610c62565b865550610d44565b601f198416610cf386610ad7565b5f5b82811015610d1a57848901518255600182019150602085019450602081019050610cf5565b86831015610d375784890151610d33601f891682610c46565b8355505b6001600288020188555050505b505050505050565b5f82825260208201905092915050565b5f610d6682610713565b610d708185610d4c565b9350610d8081856020860161072d565b610d8981610755565b840191505092915050565b5f6060820190508181035f830152610dac8186610d5c565b90508181036020830152610dc08185610d5c565b90508181036040830152610dd48184610d5c565b905094935050505056fea2646970667358221220cdc92bdb6720ac24a619ea9743863870b63b1653e6308798c13318acb643d19064736f6c63430008140033",
  "immutableReferences": {},
  "source": "// SPDX-License-Identifier: MIT\npragma solidity ^0.8.0;\n\ncontract UserDataStorage {\n    // Struct to hold user data\n    struct UserData {\n        string name; // User's name\n        string userAddress; // User's physical address (as a string)\n        string location; // User's location\n    }\n\n    // Mapping from Ethereum address to an array of UserData structs\n    mapping(address => UserData[]) private userDataMapping;\n\n    // Event to notify when data is saved\n    event UserDataSaved(\n        address indexed userAccount,\n        string name,\n        string userAddress,\n        string location\n    );\n\n    // Function to save user data (allows multiple entries for the same address)\n    function saveUserData(\n        string memory _name,\n        string memory _userAddress,\n        string memory _location\n    ) external {\n        // Create a new UserData struct and push it into the user's data array\n        UserData memory newUserData = UserData({\n            name: _name,\n            userAddress: _userAddress,\n            location: _location\n        });\n        userDataMapping[msg.sender].push(newUserData);\n\n        // Emit an event to notify that new data has been saved\n        emit UserDataSaved(msg.sender, _name, _userAddress, _location);\n    }\n\n    // Function to retrieve all user data for the caller's address\n    function getUserData() external view returns (UserData[] memory) {\n        return userDataMapping[msg.sender];\n    }\n\n    // Function to retrieve user data for a specific address (optional)\n    function getUserDataByAddress(\n        address _userAddress\n    ) external view returns (UserData[] memory) {\n        return userDataMapping[_userAddress];\n    }\n}\n",
  "sourcePath": "/Users/amrnazeh/Documents/unvierstiy /Final_year/final/my-web3-ai-app/contracts/UserDataStorage.sol",
  "compiler": {
    "name": "solc",
    "version": "0.8.20+commit.a1b79de6.Emscripten.clang"
  },
  "schemaVersion": "3.4.16",
  "updatedAt": "2025-01-14T01:30:42.279Z",
  "networkType": "ethereum",
  "devdoc": {
    "kind": "dev",
    "methods": {},
    "version": 1
  },
  "userdoc": {
    "kind": "user",
    "methods": {},
    "version": 1
  }
}